0000000001107305913000165000000000000SONY DADC INDUSTRIA E DISTRIBUI플O VIDEO-FO                                                                                                           000100002800034870303201416032016160320161653
0000000014030320141440220520141241
0000000022070720141458107305913000165000000000000SONY DADC INDUSTRIA E DISTRIBUI플O VIDEO-FO                                                                                                           Av. Buriti, 2855, Parte-Distrito Industrial, 69075-000, Manaus-AM                                   
0000000034070720141500070720141501
0000000045070720141501I012988309029ADRIANA RIBEIRO DA SILVA                            
0000000055070720141501I016030920287ADRIANO DOS REIS MARTINS                            
0000000065070720141501I019007980591ALAN KARDEC PRAIA DA CUNHA                          
0000000075070720141501I012894545020ALDALEIA PEREIRA VIEIRA                             
0000000085070720141501I012801810020ALESSANDRO LIMA DA COSTA                            
0000000095070720141501I020986016890ALESSANDRO SOARES DE MOURA                          
0000000105070720141501I012910253025ALEXSANDRO SILVA DA COSTA                           
0000000115070720141501I013069029026ALICIANE DA SILVA DUTRA                             
0000000125070720141501I012612739027ANTONIO CLAUDIO DOS SANTOS DA SILVA                 
0000000135070720141501I020172989951ARLISON MARQUES RODRIGUES                           
0000000145070720141501I012369437245AUSERINO SOUSA DE CARVALHO                          
0000000155070720141501I020173371404BEATRIZ PEDROZA DA SILVA                            
0000000165070720141501I012760291024BRUNO FERNANDES TEXEIRA                             
0000000175070720141501I012168012212CARLOS ALBERTO PONTES DO NASCIMENTO                 
0000000185070720141501I010684252098CELSO ROSA DA SILVA                                 
0000000195070720141501I012764220024CLAUDINEY MORAIS NOGUEIRA                           
0000000205070720141501I016448549499CLEUSON ROL DE LIMA                                 
0000000215070720141501I020206131571DANIEL CAMPOS FIGUEIRA                              
0000000225070720141501I012611072029DANIELLE ERISS GREBERLANE ANDRADE MARQUES           
0000000235070720141501I013045038025DENYS DA COSTA MELLO                                
0000000245070720141501I016160204786ELIZANGELA COSTA DA SILVA                           
0000000255070720141501I012710428026ERLANDSO SILVA DOS SANTOS                           
0000000265070720141501I012824311020FABIANA NOGUEIRA DE MACEDO                          
0000000275070720141501I013524728277FABIO JARDEL MACIEL                                 
0000000285070720141501I012064595904FERNANDO CLAUDIO BENTO DE SANTANA                   
0000000295070720141501I012891642025FRANCISCO AELISON COSTA DA SILVA                    
0000000305070720141501I012753234029FRANCISCO JOSE SANTOS DE OLIVEIRA                   
0000000315070720141501I016300248411FRANCISCO WANEI DUARTE DE SOUZA                     
0000000325070720141501I012622872021GERBSON MAGALHAES DE QUEIROZ                        
0000000335070720141501I018194928104GESCIOMAR BARROS DA SILVA                           
0000000345070720141501I012796592024GILBERTO FARIAS ARCOS JUNIOR                        
0000000355070720141501I012871814025GILMARA SUZIANE BARBOSA CASANOVA                    
0000000365070720141501I012658819023GREICE CABRAL DE FRANCA                             
0000000375070720141501I012530315800HAILA LEIRE SAIFE MONTEIRO                          
0000000385070720141501I012720826024HIGINO DOS SANTOS REIS JUNIOR                       
0000000395070720141501I016208594864IGOR CESAR DE OLIVEIRA MACHADO                      
0000000405070720141501I012607956023INGRID DEUSILENE PINHEIRO VIEIRA                    
0000000415070720141501I012598460660ISRAEL RODRIGUES RUFINO                             
0000000425070720141501I012777639029IVANA MARIA CARIPUNA DA MOTA                        
0000000435070720141502I012326527919IVANILCE GUADALUPE GOMES NOGUEIRA                   
0000000445070720141502I013634852274IVONICE LIMA DOS SANTOS                             
0000000455070720141502I012530469484JACQUELINE MICHELLE FERREIRA DE SALES               
0000000465070720141502I013511403277JAMILLE DA SILVA CARDOSO                            
0000000475070720141502I012365817833JAYME FARIAS DA SILVA                               
0000000485070720141502I012580880021JOANA TEIXEIRA LEAO                                 
0000000495070720141502I010826802858JOAO JOSE DE MORAES                                 
0000000505070720141502I012820016024JODILSON RAMOS COELHO FILHO                         
0000000515070720141502I016253813391JONAS AZEVEDO DA SILVA                              
0000000525070720141502I013631228774JONATHA SMITY BARBOSA E SILVA                       
0000000535070720141502I012962493027JOSE ALBERTO BARBOSA DO NASCIMENTO                  
0000000545070720141502I013059122023JOSE CHARLES GOMES BATISTA                          
0000000555070720141502I012305255480JOSE DE SOUZA AVILA                                 
0000000565070720141502I012461929876JOSINALDO FERREIRA DE SOUZA                         
0000000575070720141502I012917983029JULIO CESAR DA SILVA PINHEIRO                       
0000000585070720141502I020172867406KAMILA CORREA DE MACEDO                             
0000000595070720141502I012724379022KATIANNE REBOUCAS DA MOTA                           
0000000605070720141502I013270214277LENILCE LIMA CORREA                                 
0000000615070720141502I012305232766LIANEIDE DA ROCHA SANTOS                            
0000000625070720141502I012746397023LUCIANA COSTA DA SILVA DELGADO                      
0000000635070720141502I013044771020LUCIENE OLIVEIRA CORREA                             
0000000645070720141502I012763629026LUIZ ALBERTO AVELINO DA SILVA                       
0000000655070720141502I012790558029LUIZ ALBERTO DE ALMEIDA SILVA                       
0000000665070720141502I010898541341MANOEL IVAN SERPA DE SOUZA                          
0000000675070720141502I013258088275MARCELA COSTA DE SOUZA                              
0000000685070720141502I012493517913MARIA DA LUZ AGUIAR DE LIMA                         
0000000695070720141502I020391633559MARIA JOSE AIRES DA SILVA                           
0000000705070720141502I012834638022MIRIENY DE OLIVEIRA COIMBRA                         
0000000715070720141502I010725881248MIRKO ARAUJO FREITAS                                
0000000725070720141502I012960724021MONICA ELIAS RODRIGUES                              
0000000735070720141502I013687649279PABLO FERREIRA DE AMORIM                            
0000000745070720141502I012445195278PERON CASTELO DOS SANTOS                            
0000000755070720141502I014656862270PRISCILA WEINDRACH FERREIRA                         
0000000765070720141502I012880793027RAFAELE VIEIRA DE CASTRO                            
0000000775070720141502I012626742025RAIFRANQUE DE LIMA RODRIGUES                        
0000000785070720141502I012716132021RAIMUNDO MARCOS DE JESUS BOTINELE                   
0000000795070720141502I013103638026RAYMAR GIL DE CASTRO                                
0000000805070720141502I013012901026RENATO SANTOS HIPOLITO                              
0000000815070720141502I012861225027RICARDO  UCHOA DA SILVA                             
0000000825070720141502I012892085022RIGNEY RODRIGUES SEIXAS                             
0000000835070720141502I012553604868RINALDO FELICIANO FERREIRA AMORIM                   
0000000845070720141502I012657259024ROBSON LUIZ DO LAGO SILVA                           
0000000855070720141502I012627501587ROBSON MARCOS DE OLIVEIRA                           
0000000865070720141502I012870869020ROSANGELO CANDIDO DE SOUZA                          
0000000875070720141502I012884671023ROSILENE DE SOUZA CARVALHO                          
0000000885070720141502I012712628022SELMA BARBOSA DE DEUS                               
0000000895070720141503I012780052025SILVIANE CARVALHO DE CASTRO                         
0000000905070720141503I012149460167TEODORICO CAVALCANTE BENTES                         
0000000915070720141503I012784274022TONY MICHEL SANTOS DE BRITO                         
0000000925070720141503I012530076911UBIRACI AUGUSTO DA SILVA                            
0000000935070720141503I012866299029VANESSA CAMPOS CAVALCANTI                           
0000000945070720141503I012726427024VERA LUCIA DE CARVALHO PEREIRA LIM                  
0000000955070720141503I012187761535WANIER CRETARIO DO NASCIMENTO                       
0000000965070720141503I012530077063YAMILLE ACACIO E SILVA                              
0000000975070720141503I013023203023ABRAIN GOMES SOARES                                 
0000000985070720141503I012854426020ADJAN OLIVEIRA DA COSTA                             
0000000995070720141503I020187300652ADRIANA VALES DA SILVA                              
0000001005070720141503I012614814026AGNA KEMIA ALVES RAMOS                              
0000001015070720141503I012617919023ALCI XAVIER ALMEIDA                                 
0000001025070720141503I016124947901ALEANDRA DOS SANTOS DE SOUZA                        
0000001035070720141503I021009498837ALFRAIN PANTOJA BRAGA                               
0000001045070720141503I020095870983ALVARO DO VALE AMARAL                               
0000001055070720141503I012981622023AMANDA LEAO DA SILVA                                
0000001065070720141503I016118270245AMELIA DE JESUS DE PAULA                            
0000001075070720141503I013063533024ANDREIA DO NASCIMENTO PEREIRA                       
0000001085070720141503I013289199427ANDRIA GRACE SOUZA SANTOS                           
0000001095070720141503I012311199090CARLOS ALBERTO BARBOSA CAVALCANTE JUNIOR            
0000001105070720141503I012559779023CARLOS ALBERTO FERNANDES RIBEIRO                    
0000001115070720141503I012958586024CASSIA ALBUQUERQUE DE CASTRO                        
0000001125070720141503I012768586023CELSO FAGNER VIANA                                  
0000001135070720141503I012295627542CID DE OLIVEIRA FREITAS                             
0000001145070720141503I020641690430CLAUDIANA DE AQUINO FIGUEIRA                        
0000001155070720141503I014076959279CRISLEIDE PISSANGODA SILVA                          
0000001165070720141503I012746203024DANIEL FERREIRA DIAS                                
0000001175070720141503I012671257025DORENILDES CAMPOS FERREIRA                          
0000001185070720141503I012760954023ED FRANKILIN SILVA BARAUNA                          
0000001195070720141503I013431330427EDILMAR FARIAS CAMPOS                               
0000001205070720141503I012995061029EDIVALDO DE JESUS REIS                              
0000001215070720141503I012305417111EDVALDO CARDOSO FERNANDES                           
0000001225070720141503I017049383153EDVALDO GATO FARIAS                                 
0000001235070720141503I012825997023ELAINE NASCIMENTO DE SOUZA                          
0000001245070720141503I013701203279ELCILENE ROQUE SILVA                                
0000001255070720141503I012782851022ELDES AYRES DE OLIVEIRA JUNIOR                      
0000001265070720141503I012608431021ELICESAR APARICIO DA SILVA                          
0000001275070720141503I012782990022ELIVANE ANDRADE DE ASSUN플O                         
0000001285070720141504I012740335026ELIZABETH DO SOCORRO MACHADO DO CARMO               
0000001295070720141504I020448717950EVELYN VALENTE DA SILVA                             
0000001305070720141504I016035736956FABIANA DO NASCIMENTO BARBOSA                       
0000001315070720141504I013863200275FABIANA DOS SANTOS GOMES                            
0000001325070720141504I016012616547FELIX LIRA GRANA                                    
0000001335070720141504I016199377681FERNANDO FERREIRA DA SILVA                          
0000001345070720141504I016196079396FRANCELY DOS SANTOS DA FROTA                        
0000001355070720141504I012149452903FRANCISCO CHAGAS BATISTA LOPES                      
0000001365070720141504I012889139028FRANCISCO DANTAS MELO JUNIOR                        
0000001375070720141504I016213421603GILBERTO DA COSTA AGRA JUNIOR                       
0000001385070720141504I017023279448GILSON BARRETO DE CARVALHO                          
0000001395070720141504I012295570419GUTEMBERG COELHO BATISTA                            
0000001405070720141504I020988036694HAILTON DANTAS ARAUJO                               
0000001415070720141504I020173139269HERALDO DOS SANTOS CORREA                           
0000001425070720141504I013313920275HINDIRA GANDH GUERREIRO ORRO                        
0000001435070720141504I012748919027INGMAR FERREIRA BENTES                              
0000001445070720141504I021025483261IORHAN ISTROYCINER AUZIER RIBEIRO                   
0000001455070720141504I012559112029IRAILTON DUARTE DOS SANTOS                          
0000001465070720141504I013075577544ITAMAR CATUNDA FERNANDES                            
0000001475070720141504I013417027275IVANEIDE VIEIRA                                     
0000001485070720141504I013119386277JACQUELINE CATUNTA FERNANDES                        
0000001495070720141504I013032433028JANDSON JOHNNY AMORIM MORAES                        
0000001505070720141504I012895848027JANIO DA SILVA SANTOS                               
0000001515070720141504I016285333468JESSICA DE LIMA RODRIGUES                           
0000001525070720141504I013532236272JONATHAN NASCIMENTO RIBEIRO                         
0000001535070720141504I016178801107JOSE REINALDO QUINTINO PAIVA JUNIOR                 
0000001545070720141504I013010596021JOYCE PEREIRA DA SILVA                              
0000001555070720141504I016459177024KELY OLIVEIRA DOS SANTOS                            
0000001565070720141504I021025763760KETHLEN NAJY DA SILVA BARROSO                       
0000001575070720141504I010868977893LADISLAU VIEIRA GAMA FILHO                          
0000001585070720141504I012869115026LEANDRO LARANJEIRA SANTANA                          
0000001594070720141505070720141406
0000001605070720141406I012906028020LEVY MARCIO DA SILVA PINHO                          
0000001615070720141406I012848682223LORENA DOS SANTOS RIBEIRO                           
0000001625070720141406I013001535023LUANA FARIAS MEIRELES                               
0000001635070720141406I016428174759LUANA PIMENTEL DE LIMA                              
0000001645070720141406I020429716375LUCELIA FERREIRA MOREIRA                            
0000001655070720141406I020118706386LUCIVALDO SANTOS DO NASCIMENTO                      
0000001665070720141406I016433101969LUIZ PAULO DA SILVA PASCOAL                         
0000001675070720141406I013287677275MANOEL DE SOUSA SANTOS                              
0000001685070720141406I013739795270MARCELA REIS DO PRADO                               
0000001695070720141406I016528995371MARCELA SOARES                                      
0000001705070720141406I012674623022MARCIO ANDRE SOARES DE JESUS                        
0000001715070720141406I012868974025MARCO ANTONIO ALVES COELHO                          
0000001725070720141406I020187566040MARIA ALRIANE LEMOS MORAES                          
0000001735070720141406I013284563422MARIANA REBELO DOS SANTOS                           
0000001745070720141406I013026053022MARIVALDO FERREIRA GUIMARAES FILHO                  
0000001755070720141406I020641686085MARLISSON CAETANO ARAUJO                            
0000001765070720141406I020443366122MICHELLE DOS SANTOS VIDAL                           
0000001775070720141406I012904820029MIRLEN CARDOSO PINTO                                
0000001785070720141406I013067554026MISAEL NEY CHAVES DE SOUZA                          
0000001795070720141406I016665340407MOISES GOMES MACEDO                                 
0000001805070720141406I012754105028NADIA CRISTINA COUTO DOS SANTOS                     
0000001815070720141406I013301200272NATHANAEL DAVISON MEIRELES DE CARVALHO              
0000001825070720141406I012730141024NESTOR GLAYSON MARQUES LIRA                         
0000001835070720141406I012704294021PABLO GIOVANNI PORTO DE LIRA                        
0000001845070720141406I016664469155PATRICIA DE OLIVEIRA PALHETA                        
0000001855070720141406I012092532954PAULO CESAR OLIVEIRA DA SILVA                       
0000001865070720141406I012678057021PETERSON CUNHA DAS DORES                            
0000001875070720141406I013024306020QUEILA MARIA TAVARES DOS SANTOS SILVA               
0000001885070720141406I013070430022RAFAEL CHAVES DA SILVA                              
0000001895070720141406I010780595243RAIMUNDO CARDOSO DE CASTRO                          
0000001905070720141406I013251136274ROBSON WENDEL NEVES GARCIA                          
0000001915070720141406I012867014028RUTE DA SILVA CORDOVIL                              
0000001925070720141406I016558361478RYULLIA RHAMENA DOS SANTOS AMARAL                   
0000001935070720141406I012517241025SALES MATOS DE LIMA                                 
0000001945070720141406I020439501355SERGIO MARTINS BARRETO                              
0000001955070720141406I012530521354SIDNEY SOUZA DA SILVA                               
0000001965070720141406I012423932660SIMONE COSTA DE SOUZA BEZERRA                       
0000001975070720141406I015041358277SIMONE MONTEIRO DA SILVA                            
0000001985070720141406I020187503537TAMIRES PONTES DA COSTA                             
0000001995070720141406I016589353396THERRIS REINA LUCAS                                 
0000002005070720141406I012149462836THIRLE PEREIRA CUNHA DO NASCIMENTO                  
0000002015070720141406I020056060275TOMAS EDISON DA COSTA COELHO                        
0000002025070720141406I012997866024VALCILENE CARVALHO PINTO                            
0000002035070720141406I012699624022VANDERLAN DE MELO ALBUQUERQUE                       
0000002045070720141406I016542242237VANDERSON CARVALHO DOS REIS                         
0000002055070720141406I020721017031VIVIANE PEREIRA DA SILVA                            
0000002065070720141406I013065893427WELITO CARDOSO MORAES                               
0000002075070720141407I012123775772ADILSON ZANELLA                                     
0000002085070720141407I012275369998ANA APARECIDA TEIXEIRA                              
0000002095070720141407I012728367770ANA PAULA LOPES FELTRIN                             
0000002105070720141407I012960295937CARLA MARIA DOS SANTOS COSTA                        
0000002115070720141407I013388056934DAVID FARIAS DE ASSIS                               
0000002125070720141407I013067217933FERNANDA DE ARAUJO MANTZOURANIS                     
0000002135070720141407I012740587939GISELE CARREIRA BELAO                               
0000002145070720141407I012602884024HERON DOS SANTOS BARROSO                            
0000002155070720141407I013460221819JESSICA FLAVIANE SILVA SILVEIRA                     
0000002165070720141407I020217280913JOSE RENATO FERREIRA DE OLIVEIRA                    
0000002175070720141407I013747999815JOSIANE FERNANDES PEREIRA                           
0000002185070720141407I012669551892KELI CRISTINA DA SILVA                              
0000002195070720141407I012644953008KRUSKAYA DIJSSELBLEM                                
0000002205070720141407I020154388925LEONEL DE OLIVEIRA CORREA                           
0000002215070720141407I012580556895LILIAN CAETANO DANIEL ROCHA                         
0000002225070720141407I020364346900LUCAS WILLIANS RODRIGUES DE CARVALHO                
0000002235070720141407I012873155568MARCELO DA SILVA ELIAS                              
0000002245070720141407I012400729028MARCIA BATISTA DE OLIVEIRA                          
0000002255070720141407I012879149233MIRIAM APARECIDA DE PAULA                           
0000002265070720141407I020049539684MIRIAM MARIA UNGARETI                               
0000002275070720141407I013555883894MOISES PINHEIRO FARIAS FONTINHA                     
0000002285070720141407I016658680915NAAMA SILVA FARIAS                                  
0000002295070720141407I012298083756NALVA DIAS CORBETA                                  
0000002305070720141407I013167529856RONALDO BONFIM ALONSO                               
0000002315070720141407I012543818997SERGIO SIDNEI DOMINGOS DE BRITO                     
0000002325070720141407I012444659025SHEILA ARRUDA DA SILVA                              
0000002335070720141407I012713706817TATIANA MAZZINGHY MATIAS GONCALVES                  
0000002345070720141407I013152726812THAYANE MARTHO DE SOUZA                             
0000002353300720141152012820016024
0000002363300720141153013069029026
0000002373300720141154012866299029
0000002383300720141155012064595904
0000002393300720141156012607956023
0000002403300720141158012884671023
0000002413300720141159016160204786
0000002423300720141200012553604868
0000002433300720141201012720826024
0000002443300720141203012699624022
0000002453300720141205020391633559
0000002463300720141206012780052025
0000002473300720141207016448549499
0000002483300720141208012530077063
0000002493300720141208012824311020
0000002503300720141209012626742025
0000002513300720141213012892085022
0000002523300720141214010898541341
0000002533300720141215010684252098
0000002543300720141216018194928104
0000002553300720141218012760291024
0000002563300720141219012784274022
0000002573300720141220019007980591
0000002583300720141222012168012212
0000002593300720141223013258088275
0000002603300720141226012295570419
0000002613300720141228020187503537
0000002623300720141229012748919027
0000002633300720141232020095870983
0000002643300720141234012760954023
0000002653300720141234013026053022
0000002663300720141236012305255480
0000002673300720141236012305255480
0000002683300720141236012764220024
0000002693300720141240012461929876
0000002703300720141240012461929876
0000002713300720141241012917983029
0000002723300720141653012824311020
0000002733300720141656012553604868
0000002743300720141702012764220024
0000002753300720141706012884671023
0000002763300720141715012917983029
0000002773300720141718012699624022
0000002783300720141718020095870983
0000002793300720141724012748919027
0000002803300720141724013026053022
0000002813300720141724012295570419
0000002823300720141748012064595904
0000002833300720141904012149460167
0000002843300720141954012784274022
0000002853300720142236012892085022
0000002863300720142350012716132021
0000002873300720142350012622872021
0000002883300720142350012657259024
0000002893300720142350012530076911
0000002903300720142350012777639029
0000002913300720142350010725881248
0000002923300720142350012612739027
0000002933300720142351012149460167
0000002943300720142353012753234029
0000002953310720140716012720826024
0000002963310720140717012764220024
0000002973310720140717012553604868
0000002983310720140717012892085022
0000002993310720140717019007980591
0000003003310720140717012305255480
0000003013310720140717012626742025
0000003023310720140718012824311020
0000003033310720140718012168012212
0000003043310720140719016448549499
0000003053310720140721018194928104
0000003063310720140721012530077063
0000003073310720140721012884671023
0000003083310720140723012780052025
0000003093310720140723016160204786
0000003103310720140724012064595904
0000003113310720140726012866299029
0000003123310720140728010898541341
0000003133310720140732012748919027
0000003143310720140735012917983029
0000003153310720140744012784274022
0000003163310720140908012295570419
0000003173310720141515012530076911
0000003183310720141515012716132021
0000003193310720141515012612739027
0000003203310720141516012777639029
0000003213310720141517012657259024
0000003223310720141517010725881248
0000003233310720141517012622872021
0000003243310720141527012149460167
0000003253310720141537012763629026
0000003263310720141554020206131571
0000003273310720141653012530077063
0000003283310720141657016448549499
0000003293310720141659012720826024
0000003303310720141700012824311020
0000003313310720141701018194928104
0000003323310720141705012305255480
0000003333310720141705010898541341
0000003343310720141705012917983029
0000003353310720141705012626742025
0000003363310720141706012866299029
0000003373310720141706012884671023
0000003383310720141709012699624022
0000003393310720141710012295570419
0000003403310720141713012748919027
0000003413310720141713020095870983
0000003423310720141752012064595904
0000003433310720141800012892085022
0000003443310720141801010684252098
0000003453310720142350012777639029
0000003463310720142350012716132021
0000003473310720142350020206131571
0000003483310720142350012657259024
0000003493310720142350010725881248
0000003503310720142350012622872021
0000003513310720142350012753234029
0000003523310720142350012530076911
0000003533310720142350012612739027
0000003543310720142352012149460167
0000003553310720142352012763629026
0000003563010820140710012295570419
0000003573010820140710012764220024
0000003583010820140710012626742025
0000003593010820140710012530077063
0000003603010820140712012866299029
0000003613010820140712012168012212
0000003623010820140716012884671023
0000003633010820140724012305255480
0000003643010820140724020095870983
0000003653010820140724012553604868
0000003663010820140725019007980591
0000003673010820140725016160204786
0000003683010820140726012720826024
0000003693010820140726012892085022
0000003703010820140727012064595904
0000003713010820140727010684252098
0000003723010820140729012917983029
0000003733010820140734010898541341
0000003743010820140736018194928104
0000003753010820141520012622872021
0000003763010820141520010725881248
0000003773010820141528012612739027
0000003783010820141528012657259024
0000003793010820141528012716132021
0000003803010820141528012530076911
0000003813010820141529012777639029
0000003823010820141529012149460167
0000003833010820141531012763629026
0000003843010820141639012530077063
0000003853010820141642012917983029
0000003863010820141644012553604868
0000003873010820141644012064595904
0000003883010820141644010898541341
0000003893010820141644012764220024
0000003903010820141712013026053022
0000003913010820141718020095870983
0000003923010820141718012760954023
0000003933010820141718012699624022
0000003943010820142350012777639029
0000003953010820142350012612739027
0000003963010820142350012657259024
0000003973010820142350012530076911
0000003983010820142350010725881248
0000003993010820142350012763629026
0000004003010820142351012149460167
0000004013010820142351012753234029
0000004023010820142352012716132021
0000004033010820142352012622872021
0000004043010820142352020206131571
0000004053020820140723019007980591
0000004063020820141700019007980591
0000004073040820140715012760954023
0000004083040820140717020095870983
0000004093040820140719016448549499
0000004103040820140719012764220024
0000004113040820140719012168012212
0000004123040820140719012553604868
0000004133040820140720010684252098
0000004143040820140720012305255480
0000004153040820140720012824311020
0000004163040820140720012917983029
0000004173040820140721020391633559
0000004183040820140721012626742025
0000004193040820140723012530077063
0000004203040820140723012884671023
0000004213040820140723012720826024
0000004223040820140723012699624022
0000004233040820140723012892085022
0000004243040820140723012064595904
0000004253040820140723019007980591
0000004263040820140723012461929876
0000004273040820140725010898541341
0000004283040820140725012780052025
0000004293040820140727012760291024
0000004303040820140728018194928104
0000004313040820140748012607956023
0000004323040820140755012962493027
0000004333040820140755012790558029
0000004343040820140756012369437245
0000004354040820141135040820141135
0000004364040820141307040820141308
0000004374040820141309260820141309
0000004384260820141309040820141309
0000004394040820141309040820141310
0000004403040820141517012622872021
0000004413040820141517010725881248
0000004423040820141517012777639029
0000004433040820141524020206131571
0000004443040820141524012149460167
0000004453040820141525012716132021
0000004463040820141526012763629026
0000004473040820141526012530076911
0000004483040820141526012295570419
0000004493040820141526012753234029
0000004503040820141526012612739027
0000004513040820141542012607956023
0000004523040820141542016208594864
0000004533040820141543020986016890
0000004543040820141544013687649279
0000004553040820141718012530077063
0000004563040820141718012461929876
0000004573040820141718012760291024
0000004583040820141718016448549499
0000004593040820141718010684252098
0000004603040820141718010898541341
0000004613040820141718012168012212
0000004623040820141718012784274022
0000004633040820141718013687649279
0000004643040820141718012720826024
0000004653040820141719018194928104
0000004663040820141719012884671023
0000004673040820141719012824311020
0000004683040820141719019007980591
0000004693040820141720012780052025
0000004703040820141720012064595904
0000004713040820141720016160204786
0000004723040820141720020391633559
0000004733040820141722012917983029
0000004743040820141722012553604868
0000004753040820141723012764220024
0000004763040820141723012699624022
0000004773040820141724012626742025
0000004783040820141724013258088275
0000004793040820141726012305255480
0000004803040820141727012748919027
0000004813040820142310012369437245
0000004823040820142325012962493027
0000004833040820142325012790558029
0000004843040820142350010725881248
0000004853040820142350012657259024
0000004863040820142350012716132021
0000004873040820142350012622872021
0000004883040820142350016208594864
0000004893040820142350012777639029
0000004903040820142350020206131571
0000004913040820142352012530076911
0000004923040820142352012295570419
0000004933040820142353012612739027
0000004943040820142354012149460167
0000004953040820142356012763629026
0000004963050820140708012626742025
0000004973050820140712020391633559
0000004983050820140717012530077063
0000004993050820140718012824311020
0000005003050820140718012884671023
0000005013050820140719012764220024
0000005023050820140719012168012212
0000005033050820140720012064595904
0000005043050820140720012866299029
0000005053050820140720020187503537
0000005063050820140720018194928104
0000005073050820140721012305255480
0000005083050820140721012461929876
0000005093050820140721019007980591
0000005103050820140722012699624022
0000005113050820140722013026053022
0000005123050820140722012760291024
0000005133050820140723012720826024
0000005143050820140723016160204786
0000005153050820140725012760954023
0000005163050820140728010898541341
0000005173050820140729012553604868
0000005183050820140735012917983029
0000005193050820140744012748919027
0000005203050820140745013258088275
0000005213050820140753012369437245
0000005223050820140753013687649279
0000005233050820140755012790558029
0000005243050820140756012962493027
0000005253050820141109013687649279
0000005263050820141416012517241025
0000005273050820141418012517241025
0000005283050820141509012777639029
0000005293050820141519012657259024
0000005303050820141521020206131571
0000005313050820141521012530076911
0000005323050820141522012753234029
0000005333050820141522010725881248
0000005343050820141522012716132021
0000005353050820141522012622872021
0000005363050820141522016208594864
0000005373050820141523012763629026
0000005383050820141523012149460167
0000005393050820141524012295570419
0000005403050820141541012880793027
0000005413050820141718012530077063
0000005423050820141718012760954023
0000005433050820141718013026053022
0000005443050820141718012699624022
0000005453050820141718010898541341
0000005463050820141718012365817833
0000005473050820141718012305255480
0000005483050820141718012461929876
0000005493050820141718012553604868
0000005503050820141719012884671023
0000005513050820141719010684252098
0000005523050820141719012760291024
0000005533050820141719012720826024
0000005543050820141719012824311020
0000005553050820141719020391633559
0000005563050820141719019007980591
0000005573050820141719012780052025
0000005583050820141719012168012212
0000005593050820141721012626742025
0000005603050820141721016160204786
0000005613050820141721018194928104
0000005623050820141722012917983029
0000005633050820141722012866299029
0000005643050820141722012764220024
0000005653050820141722020187503537
0000005663050820141726012748919027
0000005673050820142308012369437245
0000005683050820142325012790558029
0000005693050820142326012962493027
0000005703050820142350012622872021
0000005713050820142350012716132021
0000005723050820142350016208594864
0000005733050820142350020206131571
0000005743050820142350012777639029
0000005753050820142350010725881248
0000005763050820142350012657259024
0000005773050820142350012880793027
0000005783050820142351012295570419
0000005793050820142352012763629026
0000005803050820142352012530076911
0000005813050820142353012149460167
0000005823050820142354012753234029
0000005833060820140715012764220024
0000005843060820140716012760954023
0000005853060820140716013258088275
0000005863060820140716012626742025
0000005873060820140717020391633559
0000005883060820140717019007980591
0000005893060820140718012461929876
0000005903060820140718012530077063
0000005913060820140718012168012212
0000005923060820140718010898541341
0000005933060820140718012720826024
0000005943060820140719012824311020
0000005953060820140719012365817833
0000005963060820140720012884671023
0000005973060820140721012866299029
0000005983060820140721012064595904
0000005993060820140721012305255480
0000006003060820140722012760291024
0000006013060820140724012553604868
0000006023060820140726016160204786
0000006033060820140726012780052025
0000006043060820140726010684252098
0000006053060820140727012699624022
0000006063060820140727012917983029
0000006073060820140728013687649279
0000006083060820140732018194928104
0000006093060820140738012748919027
0000006103060820140749012784274022
0000006113060820140752012369437245
0000006123060820140752012790558029
0000006133060820140754012962493027
0000006143060820141223012553604868
0000006153060820141257012553604868
0000006163060820141516020206131571
0000006173060820141522012657259024
0000006183060820141522012530076911
0000006193060820141523012149460167
0000006203060820141523012753234029
0000006213060820141524010725881248
0000006223060820141524012880793027
0000006233060820141524012716132021
0000006243060820141524012622872021
0000006253060820141524016208594864
0000006263060820141524012295570419
0000006273060820141527012763629026
0000006283060820141716012760291024
0000006293060820141718012530077063
0000006303060820141718012365817833
0000006313060820141718010898541341
0000006323060820141718018194928104
0000006333060820141718012626742025
0000006343060820141718013687649279
0000006353060820141718012461929876
0000006363060820141718013026053022
0000006373060820141718012866299029
0000006383060820141719012748919027
0000006393060820141719012764220024
0000006403060820141719020391633559
0000006413060820141719012824311020
0000006423060820141719016160204786
0000006433060820141719012884671023
0000006443060820141720010684252098
0000006453060820141720012168012212
0000006463060820141720012553604868
0000006473060820141720012699624022
0000006483060820141721019007980591
0000006493060820141721012720826024
0000006503060820141721012064595904
0000006513060820141722012305255480
0000006523060820141722020187503537
0000006533060820141724012780052025
0000006543060820141724012917983029
0000006553060820141727012784274022
0000006563060820141729013258088275
0000006573060820142302012369437245
0000006583060820142315012962493027
0000006593060820142324012790558029
0000006603060820142350012716132021
0000006613060820142350012622872021
0000006623060820142350016208594864
0000006633060820142350020206131571
0000006643060820142350012657259024
0000006653060820142350012880793027
0000006663060820142350012530076911
0000006673060820142350010725881248
0000006683060820142350012777639029
0000006693060820142350012295570419
0000006703060820142351012753234029
0000006713060820142353012149460167
0000006723060820142356012763629026
0000006733070820140714012064595904
0000006743070820140714012626742025
0000006753070820140714012764220024
0000006763070820140715012305255480
0000006773070820140715018194928104
0000006783070820140717020391633559
0000006793070820140717012699624022
0000006803070820140717020187503537
0000006813070820140717012866299029
0000006823070820140717012168012212
0000006833070820140719012365817833
0000006843070820140720012461929876
0000006853070820140720010684252098
0000006863070820140722016160204786
0000006873070820140722010898541341
0000006883070820140722012780052025
0000006893070820140722013258088275
0000006903070820140730012760291024
0000006913070820140730019007980591
0000006923070820140731012917983029
0000006933070820140731013687649279
0000006943070820140737012784274022
0000006953070820140750012760954023
0000006963070820140751012710428026
0000006973070820140752012369437245
0000006983070820140756012790558029
0000006993070820140756012962493027
0000007003070820141501012748919027
0000007013070820141518012777639029
0000007023070820141518012657259024
0000007033070820141518012753234029
0000007043070820141520012612739027
0000007053070820141521012149460167
0000007063070820141523012295570419
0000007073070820141526012622872021
0000007083070820141526012716132021
0000007093070820141526016208594864
0000007103070820141527010725881248
0000007113070820141531012880793027
0000007123070820141538012763629026
0000007133070820141550012760291024
0000007143070820141550019007980591
0000007153070820141552012780052025
0000007163070820141552012917983029
0000007173070820141716012626742025
0000007183070820141718012365817833
0000007193070820141718013059122023
0000007203070820141718013026053022
0000007213070820141718012760954023
0000007223070820141718012699624022
0000007233070820141718013687649279
0000007243070820141718020391633559
0000007253070820141718016160204786
0000007263070820141719012866299029
0000007273070820141720012168012212
0000007283070820141720012461929876
0000007293070820141721012305255480
0000007303070820141721020187503537
0000007313070820141721012764220024
0000007323070820141722012064595904
0000007333070820141722010826802858
0000007343070820141725018194928104
0000007353070820141725010898541341
0000007363070820141808010684252098
0000007373070820141815012784274022
0000007383070820142307012369437245
0000007393070820142312012553604868
0000007403070820142312012710428026
0000007413070820142314012884671023
0000007423070820142315020206131571
0000007433070820142315012824311020
0000007443070820142319012720826024
0000007453070820142324012790558029
0000007463070820142325012962493027
0000007473070820142350012622872021
0000007483070820142350012716132021
0000007493070820142350016208594864
0000007503070820142350010725881248
0000007513070820142350012657259024
0000007523070820142350012777639029
0000007533070820142350012305232766
0000007543070820142350012880793027
0000007553070820142350012493517913
0000007563070820142351012753234029
0000007573070820142351012149460167
0000007583070820142351012763629026
0000007593070820142352012295570419
0000007603070820142352012612739027
0000007613080820140713012626742025
0000007623080820140718012365817833
0000007633080820140718010898541341
0000007643080820140719012168012212
0000007653080820140719012866299029
0000007663080820140719012764220024
0000007673080820140719012760954023
0000007683080820140720012461929876
0000007693080820140720012780052025
0000007703080820140721020391633559
0000007713080820140723012064595904
0000007723080820140723012305255480
0000007733080820140725012699624022
0000007743080820140729012530077063
0000007753080820140731013059122023
0000007763080820140731010684252098
0000007773080820140731016160204786
0000007783080820140732013687649279
0000007793080820140732012917983029
0000007803080820140743018194928104
0000007813080820140750012369437245
0000007823080820140751012790558029
0000007833080820140753012962493027
0000007843080820140754012784274022
0000007853080820140756012748919027
0000007863080820140756012710428026
0000007873080820140757012884671023
0000007883080820140757012824311020
0000007893080820140758012553604868
0000007903080820140759012720826024
0000007913080820140759012530076911
0000007925080820141441A012988309029ADRIANA RIBEIRO DA SILVA                            
0000007935080820141441A012801810020ALESSANDRO LIMA DA COSTA                            
0000007945080820141442A012326527919IVANILCE GUADALUPE GOMES NOGUEIRA                   
0000007955080820141442A016253813391JONAS AZEVEDO DA SILVA                              
0000007965080820141442A013631228774JONATHA SMITY BARBOSA E SILVA                       
0000007975080820141446E012712628022SELMA BARBOSA DE DEUS                               
0000007985080820141446A012445195278PERON CASTELO DOS SANTOS                            
0000007995080820141446A013023203023ABRAIN GOMES SOARES                                 
0000008005080820141446A020187300652ADRIANA VALES DA SILVA                              
0000008015080820141446A012614814026AGNA KEMIA ALVES RAMOS                              
0000008025080820141446A012617919023ALCI XAVIER ALMEIDA                                 
0000008035080820141446A016124947901ALEANDRA DOS SANTOS DE SOUZA                        
0000008045080820141446A021009498837ALFRAIN PANTOJA BRAGA                               
0000008055080820141446A012981622023AMANDA LEAO DA SILVA                                
0000008065080820141447A016118270245AMELIA DE JESUS DE PAULA                            
0000008075080820141447A013063533024ANDREIA DO NASCIMENTO PEREIRA                       
0000008085080820141447A013289199427ANDRIA GRACE SOUZA SANTOS                           
0000008095080820141447A012311199090CARLOS ALBERTO BARBOSA CAVALCANTE JUNIOR            
0000008105080820141447A012559779023CARLOS ALBERTO FERNANDES RIBEIRO                    
0000008115080820141447A012958586024CASSIA ALBUQUERQUE DE CASTRO                        
0000008125080820141447A012768586023CELSO FAGNER VIANA                                  
0000008135080820141447A012295627542CID DE OLIVEIRA FREITAS                             
0000008145080820141447A020641690430CLAUDIANA DE AQUINO FIGUEIRA                        
0000008155080820141448A012746203024DANIEL FERREIRA DIAS                                
0000008165080820141448A012671257025DORENILDES CAMPOS FERREIRA                          
0000008175080820141448A013431330427EDILMAR FARIAS CAMPOS                               
0000008185080820141448A012995061029EDIVALDO DE JESUS REIS                              
0000008195080820141448A017049383153EDVALDO GATO FARIAS                                 
0000008205080820141448A012825997023ELAINE NASCIMENTO DE SOUZA                          
0000008215080820141448A013701203279ELCILENE ROQUE SILVA                                
0000008225080820141448A012782851022ELDES AYRES DE OLIVEIRA JUNIOR                      
0000008235080820141449A012608431021ELICESAR APARICIO DA SILVA                          
0000008245080820141449A012782990022ELIVANE ANDRADE DE ASSUN플O                         
0000008255080820141449A012740335026ELIZABETH DO SOCORRO MACHADO DO CARMO               
0000008265080820141449A020448717950EVELYN VALENTE DA SILVA                             
0000008275080820141449A016035736956FABIANA DO NASCIMENTO BARBOSA                       
0000008285080820141449A013863200275FABIANA DOS SANTOS GOMES                            
0000008295080820141449A016012616547FELIX LIRA GRANA                                    
0000008305080820141449A016199377681FERNANDO FERREIRA DA SILVA                          
0000008315080820141450A016196079396FRANCELY DOS SANTOS DA FROTA                        
0000008325080820141450A012149452903FRANCISCO CHAGAS BATISTA LOPES                      
0000008335080820141450A012889139028FRANCISCO DANTAS MELO JUNIOR                        
0000008345080820141450A016213421603GILBERTO DA COSTA AGRA JUNIOR                       
0000008355080820141450A020988036694HAILTON DANTAS ARAUJO                               
0000008365080820141450A020173139269HERALDO DOS SANTOS CORREA                           
0000008375080820141450A013313920275HINDIRA GANDH GUERREIRO ORRO                        
0000008385080820141450A021025483261IORHAN ISTROYCINER AUZIER RIBEIRO                   
0000008395080820141450A012559112029IRAILTON DUARTE DOS SANTOS                          
0000008405080820141450A013075577544ITAMAR CATUNDA FERNANDES                            
0000008415080820141450A013417027275IVANEIDE VIEIRA                                     
0000008425080820141450A013119386277JACQUELINE CATUNTA FERNANDES                        
0000008435080820141450A012895848027JANIO DA SILVA SANTOS                               
0000008445080820141450A016285333468JESSICA DE LIMA RODRIGUES                           
0000008455080820141450A013532236272JONATHAN NASCIMENTO RIBEIRO                         
0000008465080820141450A016178801107JOSE REINALDO QUINTINO PAIVA JUNIOR                 
0000008475080820141450A013010596021JOYCE PEREIRA DA SILVA                              
0000008485080820141450A016459177024KELY OLIVEIRA DOS SANTOS                            
0000008495080820141450A021025763760KETHLEN NAJY DA SILVA BARROSO                       
0000008505080820141450A010868977893LADISLAU VIEIRA GAMA FILHO                          
0000008515080820141450A012869115026LEANDRO LARANJEIRA SANTANA                          
0000008525080820141450A012906028020LEVY MARCIO DA SILVA PINHO                          
0000008535080820141450A012848682223LORENA DOS SANTOS RIBEIRO                           
0000008545080820141450A013001535023LUANA FARIAS MEIRELES                               
0000008555080820141450A016428174759LUANA PIMENTEL DE LIMA                              
0000008565080820141450A020429716375LUCELIA FERREIRA MOREIRA                            
0000008575080820141450A020118706386LUCIVALDO SANTOS DO NASCIMENTO                      
0000008585080820141450A016433101969LUIZ PAULO DA SILVA PASCOAL                         
0000008595080820141450A013287677275MANOEL DE SOUSA SANTOS                              
0000008605080820141451A013739795270MARCELA REIS DO PRADO                               
0000008615080820141451A016528995371MARCELA SOARES                                      
0000008625080820141451A012868974025MARCO ANTONIO ALVES COELHO                          
0000008635080820141451A020187566040MARIA ALRIANE LEMOS MORAES                          
0000008645080820141451A013284563422MARIANA REBELO DOS SANTOS                           
0000008655080820141451A020641686085MARLISSON CAETANO ARAUJO                            
0000008665080820141451A020443366122MICHELLE DOS SANTOS VIDAL                           
0000008675080820141451A012904820029MIRLEN CARDOSO PINTO                                
0000008685080820141451A013067554026MISAEL NEY CHAVES DE SOUZA                          
0000008695080820141451A016665340407MOISES GOMES MACEDO                                 
0000008705080820141451A013301200272NATHANAEL DAVISON MEIRELES DE CARVALHO              
0000008715080820141451A012730141024NESTOR GLAYSON MARQUES LIRA                         
0000008725080820141451A012704294021PABLO GIOVANNI PORTO DE LIRA                        
0000008735080820141451A016664469155PATRICIA DE OLIVEIRA PALHETA                        
0000008745080820141451A012092532954PAULO CESAR OLIVEIRA DA SILVA                       
0000008755080820141451A012678057021PETERSON CUNHA DAS DORES                            
0000008765080820141451A013024306020QUEILA MARIA TAVARES DOS SANTOS SILVA               
0000008775080820141451A010780595243RAIMUNDO CARDOSO DE CASTRO                          
0000008785080820141451A013251136274ROBSON WENDEL NEVES GARCIA                          
0000008795080820141451A012867014028RUTE DA SILVA CORDOVIL                              
0000008805080820141451A016558361478RYULLIA RHAMENA DOS SANTOS AMARAL                   
0000008815080820141451A020439501355SERGIO MARTINS BARRETO                              
0000008825080820141451A012530521354SIDNEY SOUZA DA SILVA                               
0000008835080820141451A012423932660SIMONE COSTA DE SOUZA BEZERRA                       
0000008845080820141451A015041358277SIMONE MONTEIRO DA SILVA                            
0000008855080820141451A016589353396THERRIS REINA LUCAS                                 
0000008865080820141452E020154388925LEONEL DE OLIVEIRA CORREA                           
0000008875080820141452A012149462836THIRLE PEREIRA CUNHA DO NASCIMENTO                  
0000008885080820141452A020056060275TOMAS EDISON DA COSTA COELHO                        
0000008895080820141452A016542242237VANDERSON CARVALHO DOS REIS                         
0000008905080820141452A020721017031VIVIANE PEREIRA DA SILVA                            
0000008915080820141452A013065893427WELITO CARDOSO MORAES                               
0000008925080820141452I012854525029JOSE ROBERTO LIMA LASMAR                            
0000008935080820141452I012530355721ROSANGELA CHRISTIANE DA COSTA                       
0000008945080820141452I012948673935NATHALIA MOUSCOFSQUE BRITO                          
0000008955080820141452I013062457774THALITA CAMPANHA DIAS                               
0000008965080820141452I012501374128WYMBYRI SANTOS                                      
0000008974080820141453080820141454
0000008983080820141527012612739027
0000008993080820141527012149460167
0000009003080820141527012777639029
0000009013080820141527012295570419
0000009023080820141528012657259024
0000009033080820141528010725881248
0000009043080820141528012622872021
0000009053080820141528012716132021
0000009063080820141528016208594864
0000009073080820141529012305232766
0000009083080820141529012880793027
0000009093080820141529012493517913
0000009103080820141531012763629026
0000009113080820141552013059122023
0000009123080820141553012780052025
0000009133080820141601012917983029
0000009143080820141714012626742025
0000009153080820141718012530077063
0000009163080820141718012168012212
0000009173080820141718012461929876
0000009183080820141718012305255480
0000009193080820141718012866299029
0000009203080820141718013687649279
0000009213080820141718010898541341
0000009223080820141719020391633559
0000009233080820141719020187503537
0000009243080820141720012365817833
0000009253080820141721012784274022
0000009263080820141721013026053022
0000009273080820141721012699624022
0000009283080820141722012748919027
0000009293080820141722012764220024
0000009303080820142313012884671023
0000009313080820142314012530076911
0000009323080820142315012720826024
0000009333080820142317020206131571
0000009343080820142319012710428026
0000009353080820142325012962493027
0000009363080820142326012790558029
0000009373080820142350012622872021
0000009383080820142350012716132021
0000009393080820142350016208594864
0000009403080820142350012305232766
0000009413080820142350012657259024
0000009423080820142350012763629026
0000009433080820142350012612739027
0000009443080820142350012295570419
0000009453080820142351012149460167
0000009463080820142351010725881248
0000009473080820142351012777639029
0000009483080820142351012753234029
0000009493080820142356012880793027
0000009503080820142356012493517913
0000009513090820140715012760291024
0000009523090820140718020986016890
0000009533090820140721010898541341
0000009543090820140727012917983029
0000009553090820140727016448549499
0000009563090820140728019007980591
0000009573090820140732012780052025
0000009583090820140732012699624022
0000009593090820140750012530076911
0000009603090820140750012824311020
0000009613090820140750012369437245
0000009623090820140750012790558029
0000009633090820140750012710428026
0000009643090820140750012962493027
0000009653090820140753012884671023
0000009663090820140753012720826024
0000009673090820140754012553604868
0000009683090820140756020206131571
0000009693090820140946012892085022
0000009703090820140953012784274022
0000009713090820141512012657259024
0000009723090820141514012753234029
0000009733090820141515012305232766
0000009743090820141515012612739027
0000009753090820141518013059122023
0000009763090820141518016208594864
0000009773090820141518012716132021
0000009783090820141520012880793027
0000009793090820141520010725881248
0000009803090820141520012295570419
0000009813090820141520012149460167
0000009823090820141531012763629026
0000009833090820141550012780052025
0000009843090820141550012892085022
0000009853090820141550016448549499
0000009863090820141551012760291024
0000009873090820141556010898541341
0000009883090820141556019007980591
0000009893090820141600012917983029
0000009903090820141638012699624022
0000009914090820141724090820141725
0000009923090820141734012784274022
0000009933090820142350010725881248
0000009943090820142350013059122023
0000009953090820142350012777639029
0000009963090820142350012305232766
0000009973090820142351012753234029
0000009983090820142352012880793027
0000009993090820142352012493517913
0000010003090820142353012657259024
0000010013090820142353012295570419
0000010023090820142354012612739027
0000010033090820142359012149460167
0000010043100820140007012763629026
0000010053100820140025012716132021
0000010064100820141505100820141506
0000010073100820142308020206131571
0000010083100820142313012369437245
0000010093100820142315012720826024
0000010103100820142315012530076911
0000010113100820142316012962493027
0000010123100820142318012824311020
0000010133100820142318012790558029
0000010143100820142319012710428026
0000010153100820142319012553604868
0000010163100820142325012884671023
0000010173110820140712012866299029
0000010183110820140712012461929876
0000010193110820140716010684252098
0000010203110820140716012892085022
0000010213110820140716012168012212
0000010223110820140716019007980591
0000010233110820140716012530077063
0000010243110820140717013026053022
0000010253110820140717012305255480
0000010263110820140718016160204786
0000010273110820140720012760954023
0000010283110820140720012760291024
0000010293110820140721020986016890
0000010303110820140722012917983029
0000010313110820140725010898541341
0000010323110820140728012064595904
0000010333110820140728013687649279
0000010343110820140734010826802858
0000010353110820140750012824311020
0000010363110820140750012710428026
0000010373110820140750012369437245
0000010383110820140751020206131571
0000010393110820140752012884671023
0000010403110820140753012553604868
0000010413110820140754012790558029
0000010423110820140754012530076911
0000010433110820140756012962493027
0000010443110820140824012784274022
0000010454110820141438110820141439
0000010463110820141509012880793027
0000010473110820141515012365817833
0000010483110820141515013059122023
0000010493110820141515010725881248
0000010503110820141515012622872021
0000010513110820141515016208594864
0000010523110820141521012612739027
0000010533110820141522012753234029
0000010543110820141522012493517913
0000010553110820141522016448549499
0000010563110820141523012657259024
0000010573110820141523012716132021
0000010583110820141524012149460167
0000010593110820141526012295570419
0000010603110820141534013026053022
0000010613110820141538012763629026
0000010623110820141550012530077063
0000010633110820141550012917983029
0000010643110820141550012305255480
0000010653110820141550010898541341
0000010663110820141552012760291024
0000010673110820141554012892085022
0000010683110820141554016160204786
0000010693110820141555019007980591
0000010703110820141559020986016890
0000010713110820141719018194928104
0000010723110820141719012168012212
0000010733110820141721013687649279
0000010743110820141725012699624022
0000010753110820141726012760954023
0000010763110820141900012784274022
0000010773110820142306012369437245
0000010783110820142306012553604868
0000010793110820142308020391633559
0000010803110820142308012884671023
0000010813110820142310012710428026
0000010823110820142318012824311020
0000010833110820142320012790558029
0000010843110820142322020206131571
0000010853110820142324012530076911
0000010863110820142324012764220024
0000010873110820142324012720826024
0000010883110820142324012777639029
0000010893110820142325012962493027
0000010903110820142346012295570419
0000010913110820142350016208594864
0000010923110820142350012305232766
0000010933110820142350012753234029
0000010943110820142350010725881248
0000010953110820142350012880793027
0000010963110820142350012493517913
0000010973110820142350012365817833
0000010983110820142350012763629026
0000010993110820142350016448549499
0000011003110820142351013059122023
0000011013110820142351012657259024
0000011023110820142352012149460167
0000011033110820142354012716132021
0000011043110820142355012612739027
0000011053110820142356012622872021
0000011063120820140716012530077063
0000011073120820140717012866299029
0000011083120820140718012168012212
0000011093120820140719020986016890
0000011103120820140721012760954023
0000011113120820140721016160204786
0000011123120820140722020187503537
0000011133120820140722013026053022
0000011143120820140723010684252098
0000011153120820140723012064595904
0000011163120820140723012892085022
0000011173120820140723012461929876
0000011183120820140724012305255480
0000011193120820140724018194928104
0000011203120820140724019007980591
0000011213120820140725012760291024
0000011223120820140727012699624022
0000011233120820140729012617919023
0000011243120820140733012917983029
0000011253120820140735010898541341
0000011263120820140738012784274022
0000011273120820140750012530076911
0000011283120820140750012824311020
0000011293120820140750012369437245
0000011303120820140750012626742025
0000011313120820140750020206131571
0000011323120820140752012720826024
0000011333120820140752020391633559
0000011343120820140753012777639029
0000011353120820140753012884671023
0000011363120820140754012710428026
0000011373120820140755012962493027
0000011383120820140757012553604868
0000011393120820140757012764220024
0000011403120820140801013687649279
0000011414120820141341120820141342
0000011423120820141508016448549499
0000011433120820141514012657259024
0000011443120820141514010725881248
0000011453120820141514013059122023
0000011463120820141516012880793027
0000011473120820141516012365817833
0000011483120820141516012493517913
0000011493120820141516012753234029
0000011503120820141517012622872021
0000011513120820141517012716132021
0000011523120820141517016208594864
0000011533120820141518012612739027
0000011543120820141520012149460167
0000011553120820141523012295570419
0000011563120820141546012763629026
0000011573120820141550012530077063
0000011583120820141550010898541341
0000011593120820141551012305255480
0000011603120820141551013026053022
0000011613120820141552012760291024
0000011623120820141552012917983029
0000011633120820141553016160204786
0000011643120820141557020986016890
0000011653120820141558019007980591
0000011663120820141718012617919023
0000011673120820141722012168012212
0000011683120820141723012780052025
0000011693120820141753012784274022
0000011703120820142300012553604868
0000011713120820142300012369437245
0000011723120820142304012884671023
0000011733120820142306012710428026
0000011743120820142307020391633559
0000011753120820142315012626742025
0000011763120820142319020206131571
0000011773120820142319012824311020
0000011783120820142319012790558029
0000011793120820142323012530076911
0000011803120820142324012764220024
0000011813120820142324012777639029
0000011823120820142324012962493027
0000011833120820142330012720826024
0000011843120820142341016448549499
0000011853120820142347012880793027
0000011863120820142350012493517913
0000011873120820142350012657259024
0000011883120820142350012305232766
0000011893120820142350012365817833
0000011903120820142350013059122023
0000011913120820142350012763629026
0000011923120820142350012612739027
0000011933120820142351012753234029
0000011943120820142351010725881248
0000011953120820142352012149460167
0000011963120820142352012716132021
0000011973120820142352016208594864
0000011983120820142352012622872021
0000011993120820142353012295570419
0000012003130820140714012892085022
0000012013130820140716012760954023
0000012023130820140716012530077063
0000012033130820140716012168012212
0000012043130820140718012866299029
0000012053130820140719020986016890
0000012063130820140722016160204786
0000012073130820140722012780052025
0000012083130820140725019007980591
0000012093130820140725018194928104
0000012103130820140725012305255480
0000012113130820140726012760291024
0000012123130820140730012917983029
0000012133130820140730013026053022
0000012143130820140731012699624022
0000012153130820140731010898541341
0000012163130820140731012617919023
0000012173130820140733013258088275
0000012183130820140734012064595904
0000012193130820140740012784274022
0000012203130820140750012626742025
0000012213130820140750012369437245
0000012223130820140750012824311020
0000012233130820140751012884671023
0000012243130820140751012790558029
0000012253130820140752013687649279
0000012263130820140752012720826024
0000012273130820140753012530076911
0000012283130820140756020391633559
0000012293130820140756012777639029
0000012303130820140756020206131571
0000012313130820140758012962493027
0000012323130820140758012553604868
0000012333130820140758012710428026
0000012343130820140759012764220024
0000012355130820140801A012960724021MONICA ELIAS RODRIGUES                              
0000012363130820140808012530469484
0000012373130820140809012894545020
0000012383130820140810013634852274
0000012393130820140811012658819023
0000012403130820140814012611072029
0000012415130820141000A012854426020ADJAN OLIVEIRA DA COSTA                             
0000012424130820141212130820141213
0000012435130820141213A021025483261IORHAN ISTROYCINER AUZIER RIBEIRO                   
0000012443130820141501012880793027
0000012453130820141515010725881248
0000012463130820141515012365817833
0000012473130820141515013059122023
0000012483130820141515016448549499
0000012493130820141517012305232766
0000012503130820141518012716132021
0000012513130820141518012622872021
0000012523130820141518012365817833
0000012533130820141518016208594864
0000012543130820141518012493517913
0000012553130820141520012149460167
0000012563130820141520012612739027
0000012573130820141521012753234029
0000012583130820141521012657259024
0000012593130820141532012763629026
0000012603130820141549020172867406
0000012613130820141550012530077063
0000012623130820141550012530469484
0000012633130820141550010898541341
0000012643130820141550012780052025
0000012653130820141551013634852274
0000012663130820141551012892085022
0000012673130820141552012894545020
0000012683130820141552016160204786
0000012693130820141552012760291024
0000012703130820141553012611072029
0000012713130820141553012305255480
0000012723130820141553012917983029
0000012733130820141556012658819023
0000012743130820141557019007980591
0000012753130820141558012861225027
0000012763130820141713012064595904
0000012773130820141718012617919023
0000012783130820141719012866299029
0000012793130820141721012168012212
0000012803130820141721013687649279
0000012813130820141721012699624022
0000012823130820141721012760954023
0000012833130820141722013026053022
0000012843130820141821012784274022
0000012853130820142301012369437245
0000012863130820142304012884671023
0000012873130820142304020391633559
0000012883130820142304012960724021
0000012893130820142305012777639029
0000012903130820142310012710428026
0000012913130820142311012553604868
0000012923130820142318012626742025
0000012933130820142319012764220024
0000012943130820142319012720826024
0000012953130820142319020206131571
0000012963130820142321012530076911
0000012973130820142323012790558029
0000012983130820142323012824311020
0000012993130820142324012962493027
0000013003130820142351012763629026
0000013013130820142351012149460167
0000013023130820142351012622872021
0000013033130820142352012716132021
0000013043130820142352016208594864
0000013053130820142352013059122023
0000013063130820142353010725881248
0000013073130820142353012493517913
0000013083130820142354012305232766
0000013093130820142354012295570419
0000013103130820142355012365817833
0000013113130820142355016448549499
0000013123130820142355012657259024
0000013133130820142356012612739027
0000013143130820142359012880793027
0000013153140820140003012753234029
0000013163140820140003020172867406
0000013173140820140713012760954023
0000013183140820140718012892085022
0000013193140820140718012780052025
0000013203140820140719012168012212
0000013213140820140721012530469484
0000013223140820140721012530077063
0000013233140820140721012611072029
0000013243140820140722013634852274
0000013253140820140723016160204786
0000013263140820140724019007980591
0000013273140820140724012305255480
0000013283140820140724012894545020
0000013293140820140728013687649279
0000013303140820140730012617919023
0000013313140820140730013026053022
0000013323140820140730012699624022
0000013333140820140731012064595904
0000013343140820140731012866299029
0000013353140820140731012861225027
0000013363140820140731018194928104
0000013373140820140732012658819023
0000013383140820140732010898541341
0000013393140820140732020986016890
0000013403140820140732012760291024
0000013413140820140733012917983029
0000013423140820140740012784274022
0000013433140820140750012369437245
0000013443140820140750012626742025
0000013453140820140750020391633559
0000013463140820140750012530076911
0000013473140820140750012777639029
0000013483140820140752012790558029
0000013493140820140752012962493027
0000013503140820140753012884671023
0000013513140820140754012720826024
0000013523140820140754012710428026
0000013533140820140754020206131571
0000013543140820140756012553604868
0000013553140820140758012764220024
0000013563140820140804013258088275
0000013573140820141336012295570419
0000013583140820141515010725881248
0000013593140820141515013059122023
0000013603140820141515012365817833
0000013613140820141515012880793027
0000013623140820141515012305232766
0000013633140820141519012612739027
0000013643140820141520012149460167
0000013653140820141520016448549499
0000013663140820141520012753234029
0000013673140820141520012716132021
0000013683140820141520012622872021
0000013693140820141521016208594864
0000013703140820141521020172867406
0000013713140820141521012657259024
0000013723140820141527012763629026
0000013733140820141550012530077063
0000013743140820141550012530469484
0000013753140820141550012305255480
0000013763140820141550012917983029
0000013773140820141550012760291024
0000013783140820141551012611072029
0000013793140820141551012892085022
0000013803140820141552010898541341
0000013813140820141553012780052025
0000013823140820141557013634852274
0000013833140820141558020986016890
0000013843140820141559019007980591
0000013853140820141602012861225027
0000013863140820141602016160204786
0000013874140820141631140820141632
0000013883140820141718012617919023
0000013893140820141718013026053022
0000013903140820141718012168012212
0000013913140820141719012866299029
0000013923140820141720013687649279
0000013933140820141720018194928104
0000013943140820141820012784274022
0000013953140820142303012369437245
0000013963140820142304020391633559
0000013973140820142304012777639029
0000013983140820142304012960724021
0000013993140820142310012710428026
0000014003140820142311012553604868
0000014013140820142313012626742025
0000014023140820142313012884671023
0000014033140820142315012720826024
0000014043140820142315012530076911
0000014053140820142319012790558029
0000014063140820142320012824311020
0000014073140820142322012962493027
0000014083140820142337012764220024
0000014093140820142350012716132021
0000014103140820142350010725881248
0000014113140820142350016208594864
0000014123140820142350012305232766
0000014133140820142350016448549499
0000014143140820142350012493517913
0000014153140820142350012622872021
0000014163140820142351013059122023
0000014173140820142351012365817833
0000014183140820142352012657259024
0000014193140820142353012149460167
0000014203140820142355012763629026
0000014213140820142356012612739027
0000014223140820142357012753234029
0000014233140820142357020172867406
0000014243140820142357012880793027
0000014253150820140713012894545020
0000014263150820140720013634852274
0000014273150820140720012861225027
0000014283150820140720016160204786
0000014293150820140721020986016890
0000014303150820140721012780052025
0000014313150820140721019007980591
0000014323150820140721013258088275
0000014333150820140721012611072029
0000014343150820140723012168012212
0000014353150820140723012305255480
0000014365150820140725A021025483261IORHAN ISTROYCINER AUZIER RIBEIRO                   
0000014373150820140726012617919023
0000014383150820140726012760954023
0000014393150820140726012760291024
0000014403150820140727010898541341
0000014413150820140727012530469484
0000014423150820140730013687649279
0000014433150820140730012866299029
0000014443150820140733012658819023
0000014453150820140735012917983029
0000014463150820140745012064595904
0000014473150820140749012699624022
0000014483150820140750012710428026
0000014493150820140750012824311020
0000014503150820140750012369437245
0000014513150820140751012962493027
0000014523150820140751020391633559
0000014533150820140751012777639029
0000014543150820140751012790558029
0000014553150820140752020206131571
0000014563150820140752012530076911
0000014573150820140753012626742025
0000014583150820140753012960724021
0000014593150820140755012720826024
0000014603150820140759012553604868
0000014613150820140800012764220024
0000014623150820140803012784274022
0000014633150820140822018194928104
0000014643150820140933012187761535
0000014654150820141446150820141447
0000014663150820141515013059122023
0000014673150820141515010725881248
0000014683150820141515016448549499
0000014693150820141515012365817833
0000014703150820141517012305232766
0000014713150820141518012149460167
0000014723150820141518012622872021
0000014733150820141522012753234029
0000014743150820141522012493517913
0000014753150820141524020172867406
0000014763150820141524012657259024
0000014773150820141524012612739027
0000014783150820141525012880793027
0000014793150820141525012295570419
0000014803150820141525016208594864
0000014813150820141525012716132021
0000014823150820141539012763629026
0000014833150820141550012530077063
0000014843150820141550012530469484
0000014853150820141550012780052025
0000014863150820141551010898541341
0000014873150820141551012892085022
0000014883150820141551012305255480
0000014893150820141551012760291024
0000014903150820141551020986016890
0000014913150820141552019007980591
0000014923150820141553012894545020
0000014933150820141555013634852274
0000014943150820141557012611072029
0000014953150820141558012658819023
0000014963150820141558016160204786
0000014973150820141601012861225027
0000014983150820141603012917983029
0000014993150820141717013687649279
0000015003150820141718012617919023
0000015013150820141718012187761535
0000015023150820141720018194928104
0000015033150820141720013258088275
0000015043150820141721012866299029
0000015053150820141725012168012212
0000015063150820141726012699624022
0000015073150820141812012064595904
0000015083150820141829012784274022
0000015093150820142307012369437245
0000015103150820142308020391633559
0000015113150820142309012960724021
0000015123150820142309012553604868
0000015133150820142314012626742025
0000015143150820142317012884671023
0000015153150820142318012824311020
0000015163150820142320012710428026
0000015173150820142322012790558029
0000015183150820142322012764220024
0000015193150820142322012777639029
0000015203150820142323012530076911
0000015213150820142323012962493027
0000015223150820142345020206131571
0000015233150820142345012720826024
0000015243150820142350012657259024
0000015253150820142350013059122023
0000015263150820142350012763629026
0000015273150820142350012365817833
0000015283150820142350010725881248
0000015293150820142350012149460167
0000015303150820142350012493517913
0000015313150820142351012612739027
0000015323150820142351012305232766
0000015333150820142352012622872021
0000015343150820142352016208594864
0000015353150820142352012716132021
0000015363150820142352012880793027
0000015373150820142352016448549499
0000015383150820142354020172867406
0000015393150820142354012295570419
0000015403150820142355012753234029
0000015413160820140714020986016890
0000015423160820140714010898541341
0000015433160820140716013634852274
0000015443160820140716012530469484
0000015453160820140716016160204786
0000015463160820140716012305255480
0000015473160820140717012760291024
0000015483160820140719012780052025
0000015493160820140719012892085022
0000015503160820140719019007980591
0000015513160820140721012894545020
0000015523160820140723012861225027
0000015533160820140724012611072029
0000015543160820140726012658819023
0000015553160820140738012699624022
0000015563160820140744012917983029
0000015573160820140748012626742025
0000015583160820140748012824311020
0000015593160820140750012777639029
0000015603160820140750012884671023
0000015613160820140750012960724021
0000015623160820140750012710428026
0000015633160820140751012369437245
0000015643160820140751020391633559
0000015653160820140753012530076911
0000015663160820140753012720826024
0000015673160820140753012764220024
0000015683160820140754012553604868
0000015693160820140754012962493027
0000015703160820140754012790558029
0000015713160820140755020206131571
0000015724160820141034160820141035
0000015733160820141514012880793027
0000015743160820141514010725881248
0000015753160820141515012365817833
0000015763160820141515012305232766
0000015773160820141515016448549499
0000015783160820141515013059122023
0000015793160820141516012612739027
0000015803160820141517020172867406
0000015813160820141517012657259024
0000015823160820141517012149460167
0000015833160820141517012493517913
0000015843160820141519012622872021
0000015853160820141520016208594864
0000015863160820141520012295570419
0000015873160820141535012716132021
0000015883160820141549012760291024
0000015893160820141550012305255480
0000015903160820141550012892085022
0000015913160820141550012780052025
0000015923160820141550016160204786
0000015933160820141553012530469484
0000015943160820141553013634852274
0000015953160820141554012611072029
0000015963160820141554012894545020
0000015973160820141554010898541341
0000015983160820141555019007980591
0000015993160820141556012658819023
0000016003160820141556020986016890
0000016013160820141559012861225027
0000016023160820141601012763629026
0000016033160820141604012917983029
0000016043160820141609013026053022
0000016053160820142350012622872021
0000016063160820142350012716132021
0000016073160820142350016208594864
0000016083160820142350012305232766
0000016093160820142350012657259024
0000016103160820142350013059122023
0000016113160820142350010725881248
0000016123160820142350012365817833
0000016133160820142350012753234029
0000016143160820142351012763629026
0000016153160820142351012880793027
0000016163160820142351012149460167
0000016173160820142351016448549499
0000016183160820142351012493517913
0000016193160820142352020172867406
0000016203160820142353012612739027
0000016213160820142353012295570419
0000016224170820141045170820141046
0000016233170820142305012553604868
0000016243170820142306012710428026
0000016253170820142307012369437245
0000016263170820142308020391633559
0000016273170820142309012777639029
0000016283170820142310020206131571
0000016293170820142310012960724021
0000016303170820142315012626742025
0000016313170820142315012884671023
0000016323170820142324012764220024
0000016333170820142324012720826024
0000016343170820142325012962493027
0000016353170820142326012530076911
0000016363170820142327012824311020
0000016373170820142327012790558029
0000016383180820140714012699624022
0000016393180820140714013026053022
0000016403180820140715013634852274
0000016413180820140715020187503537
0000016423180820140715012780052025
0000016433180820140715012894545020
0000016443180820140716012617919023
0000016453180820140719012305255480
0000016463180820140719012861225027
0000016473180820140719012187761535
0000016483180820140722012168012212
0000016493180820140722018194928104
0000016503180820140725012866299029
0000016513180820140725016160204786
0000016523180820140725012611072029
0000016533180820140725010898541341
0000016543180820140725012760291024
0000016553180820140728013258088275
0000016563180820140729012658819023
0000016573180820140730013687649279
0000016583180820140730012064595904
0000016593180820140749012626742025
0000016603180820140750012530076911
0000016613180820140750012824311020
0000016623180820140750012369437245
0000016633180820140750020206131571
0000016643180820140750012960724021
0000016653180820140750012710428026
0000016663180820140751020391633559
0000016673180820140751012777639029
0000016683180820140752012720826024
0000016693180820140754012553604868
0000016703180820140756012790558029
0000016713180820140758012764220024
0000016723180820140758012962493027
0000016733180820140819012784274022
0000016743180820140905012746397023
0000016753180820140906013103638026
0000016763180820140907013012901026
0000016774180820140951180820140952
0000016785180820141043E020439501355SERGIO MARTINS BARRETO                              
0000016793180820141200012917983029
0000016803180820141400012187761535
0000016813180820141513012880793027
0000016823180820141514013059122023
0000016833180820141515012365817833
0000016843180820141515016448549499
0000016853180820141516012493517913
0000016863180820141517012622872021
0000016873180820141517012716132021
0000016883180820141517012753234029
0000016893180820141519012305232766
0000016903180820141521012612739027
0000016913180820141521012149460167
0000016923180820141521020172867406
0000016933180820141521012657259024
0000016943180820141522012295570419
0000016953180820141533012763629026
0000016963180820141550010898541341
0000016973180820141550012530077063
0000016983180820141550012780052025
0000016993180820141550012305255480
0000017003180820141553012611072029
0000017013180820141553020986016890
0000017023180820141553012917983029
0000017033180820141554013634852274
0000017043180820141554012894545020
0000017053180820141555012760291024
0000017063180820141556012892085022
0000017073180820141558012658819023
0000017083180820141558019007980591
0000017093180820141603012861225027
0000017103180820141640014656862270
0000017113180820141641012870869020
0000017123180820141642013044771020
0000017133180820141643012796592024
0000017143180820141718012617919023
0000017153180820141718013270214277
0000017163180820141718012834638022
0000017173180820141720018194928104
0000017183180820141720013687649279
0000017193180820141723012699624022
0000017203180820141723012627501587
0000017213180820141723013258088275
0000017223180820141723012866299029
0000017233180820141723012580880021
0000017243180820141723013044771020
0000017253180820141724020187503537
0000017263180820141725012746397023
0000017273180820141725012870869020
0000017283180820141725013103638026
0000017293180820141725012796592024
0000017303180820141725010684252098
0000017313180820141725012168012212
0000017323180820141759012064595904
0000017333180820142306012369437245
0000017343180820142314012962493027
0000017353180820142314012764220024
0000017363180820142314012553604868
0000017373180820142315012626742025
0000017383180820142315016208594864
0000017393180820142315012884671023
0000017403180820142319012790558029
0000017413180820142321012824311020
0000017423180820142331012777639029
0000017433180820142331020206131571
0000017443180820142332012530076911
0000017453180820142335012710428026
0000017463180820142350010725881248
0000017473180820142350013059122023
0000017483180820142350016448549499
0000017493180820142350012305232766
0000017503180820142350012657259024
0000017513180820142351012365817833
0000017523180820142351012716132021
0000017533180820142351012622872021
0000017543180820142353012149460167
0000017553180820142355012295570419
0000017563180820142358012612739027
0000017573180820142359012493517913
0000017583180820142359012880793027
0000017593180820142359012763629026
0000017603190820140000012753234029
0000017613190820140000020172867406
0000017623190820140713012760291024
0000017633190820140713013634852274
0000017643190820140713012892085022
0000017653190820140716012530469484
0000017663190820140717012530077063
0000017673190820140717012168012212
0000017683190820140717012861225027
0000017693190820140719012894545020
0000017703190820140719010898541341
0000017713190820140721012580880021
0000017723190820140721012780052025
0000017733190820140722012699624022
0000017743190820140722012627501587
0000017753190820140723016160204786
0000017763190820140723012611072029
0000017773190820140723019007980591
0000017783190820140723013012901026
0000017793190820140724012305255480
0000017803190820140725012617919023
0000017813190820140726020986016890
0000017823190820140726013687649279
0000017833190820140726012064595904
0000017843190820140727012746397023
0000017853190820140727013103638026
0000017863190820140730012866299029
0000017873190820140731012796592024
0000017883190820140731012658819023
0000017893190820140731013270214277
0000017903190820140732012917983029
0000017913190820140744012674623022
0000017925190820140747A012530355721ROSANGELA CHRISTIANE DA COSTA                       
0000017933190820140750012626742025
0000017943190820140750012777639029
0000017953190820140750020391633559
0000017963190820140750016208594864
0000017973190820140750012960724021
0000017983190820140750012530076911
0000017993190820140751012369437245
0000018003190820140751012824311020
0000018013190820140752020206131571
0000018023190820140753012710428026
0000018033190820140754012764220024
0000018043190820140756012884671023
0000018053190820140758012553604868
0000018063190820140758012790558029
0000018073190820140759012962493027
0000018083190820140815012784274022
0000018095190820140820E020095870983ALVARO DO VALE AMARAL                               
0000018104190820140834190820140835
0000018115190820140943A021025483261IORHAN ISTROYCINER AUZIER RIBEIRO                   
0000018123190820141106016030920287
0000018133190820141109012726427024
0000018143190820141113012530315800
0000018153190820141114012910253025
0000018165190820141116A012891642025FRANCISCO AELISON COSTA DA SILVA                    
0000018173190820141116012891642025
0000018183190820141117013070430022
0000018193190820141124012854525029
0000018203190820141125020172989951
0000018215190820141248E012517241025SALES MATOS DE LIMA                                 
0000018225190820141307E012598460660ISRAEL RODRIGUES RUFINO                             
0000018233190820141401012064595904
0000018245190820141410E010826802858JOAO JOSE DE MORAES                                 
0000018253190820141515013059122023
0000018263190820141515010725881248
0000018273190820141515012880793027
0000018283190820141515012365817833
0000018293190820141516012493517913
0000018303190820141516012305232766
0000018313190820141517012149460167
0000018323190820141518012753234029
0000018333190820141518016448549499
0000018343190820141519012716132021
0000018353190820141519012622872021
0000018363190820141520013524728277
0000018373190820141521012612739027
0000018383190820141521020172867406
0000018393190820141521012657259024
0000018403190820141530010898541341
0000018413190820141550012305255480
0000018423190820141550020986016890
0000018433190820141554016160204786
0000018443190820141554012780052025
0000018453190820141555012530077063
0000018463190820141555012611072029
0000018473190820141555012530469484
0000018483190820141555012854525029
0000018493190820141556013634852274
0000018503190820141557012892085022
0000018513190820141558012760291024
0000018523190820141558012658819023
0000018533190820141559012894545020
0000018543190820141559012917983029
0000018553190820141600019007980591
0000018563190820141601012861225027
0000018573190820141717013270214277
0000018583190820141717013103638026
0000018593190820141717012746397023
0000018603190820141717013012901026
0000018613190820141718012617919023
0000018623190820141718012168012212
0000018633190820141718012530315800
0000018643190820141719013687649279
0000018653190820141720012910253025
0000018663190820141721013258088275
0000018673190820141721012726427024
0000018683190820141722013069029026
0000018693190820141722012607956023
0000018703190820141722012866299029
0000018713190820141723014656862270
0000018723190820141724013524728277
0000018733190820141724012760954023
0000018743190820141724012796592024
0000018753190820141724012891642025
0000018763190820141725012699624022
0000018773190820141725012580880021
0000018783190820141726012870869020
0000018793190820141829012784274022
0000018803190820142006016030920287
0000018813190820142302020391633559
0000018823190820142304012369437245
0000018833190820142307012960724021
0000018843190820142308012553604868
0000018853190820142315020206131571
0000018863190820142315012626742025
0000018873190820142315012777639029
0000018883190820142315012530076911
0000018893190820142315012720826024
0000018903190820142316016208594864
0000018913190820142317012824311020
0000018923190820142318012884671023
0000018933190820142318012710428026
0000018943190820142323012790558029
0000018953190820142323012962493027
0000018963190820142350010725881248
0000018973190820142350013059122023
0000018983190820142350012657259024
0000018993190820142350012365817833
0000019003190820142350016448549499
0000019013190820142350012716132021
0000019023190820142350012763629026
0000019033190820142350012622872021
0000019043190820142350012493517913
0000019053190820142350012880793027
0000019063190820142351012612739027
0000019073190820142351012305232766
0000019083190820142352012149460167
0000019093190820142352012295570419
0000019103190820142356020172867406
0000019114200820140528200820140529
0000019123200820140701013103638026
0000019133200820140702016030920287
0000019143200820140709013524728277
0000019153200820140712013634852274
0000019163200820140714012894545020
0000019173200820140716012861225027
0000019183200820140716012580880021
0000019193200820140717012892085022
0000019203200820140717012746397023
0000019213200820140718012854525029
0000019223200820140720012530077063
0000019233200820140721012187761535
0000019243200820140721012870869020
0000019253200820140721012530469484
0000019263200820140721012064595904
0000019273200820140721012305255480
0000019283200820140721012617919023
0000019293200820140722012168012212
0000019303200820140722020986016890
0000019313200820140722012866299029
0000019323200820140722013012901026
0000019333200820140723013069029026
0000019343200820140725016160204786
0000019353200820140725012611072029
0000019363200820140725012530315800
0000019373200820140725010898541341
0000019383200820140726018194928104
0000019393200820140726019007980591
0000019403200820140726012627501587
0000019413200820140728020187503537
0000019423200820140728012699624022
0000019433200820140728013070430022
0000019443200820140728012760291024
0000019453200820140729012796592024
0000019463200820140729012760954023
0000019473200820140730013026053022
0000019483200820140730013270214277
0000019493200820140730012658819023
0000019503200820140730013258088275
0000019513200820140733012917983029
0000019523200820140734012726427024
0000019533200820140735012607956023
0000019543200820140738016253813391
0000019553200820140750012530076911
0000019563200820140750012369437245
0000019573200820140750012626742025
0000019583200820140750012710428026
0000019593200820140750016208594864
0000019603200820140751012824311020
0000019613200820140751012674623022
0000019623200820140751012777639029
0000019633200820140751012960724021
0000019643200820140751012764220024
0000019653200820140752012790558029
0000019663200820140753012784274022
0000019673200820140753020391633559
0000019683200820140753012720826024
0000019693200820140754012962493027
0000019703200820140755020206131571
0000019713200820140756012553604868
0000019723200820140756012884671023
0000019733200820140804013687649279
0000019743200820140856014656862270
0000019755200820140944E012724379022KATIANNE REBOUCAS DA MOTA                           
0000019763200820140959012910253025
0000019773200820141515012365817833
0000019783200820141515013059122023
0000019793200820141515010725881248
0000019803200820141517012305232766
0000019813200820141517012763629026
0000019823200820141517012880793027
0000019833200820141517012493517913
0000019843200820141517012622872021
0000019853200820141520012716132021
0000019863200820141520012753234029
0000019873200820141521012149460167
0000019883200820141528016448549499
0000019893200820141529012612739027
0000019903200820141530020172867406
0000019913200820141530012657259024
0000019923200820141531012295570419
0000019933200820141550010898541341
0000019943200820141550012530077063
0000019953200820141550012305255480
0000019963200820141550012892085022
0000019973200820141550012760291024
0000019983200820141550013026053022
0000019993200820141553012530469484
0000020003200820141553020986016890
0000020013200820141554012854525029
0000020023200820141554016160204786
0000020033200820141554012917983029
0000020043200820141554012611072029
0000020053200820141555013634852274
0000020063200820141556020172989951
0000020073200820141556013070430022
0000020083200820141557012894545020
0000020093200820141600019007980591
0000020103200820141601012658819023
0000020113200820141603012861225027
0000020123200820141718012168012212
0000020133200820141718012760954023
0000020143200820141718013270214277
0000020153200820141718012617919023
0000020163200820141718012187761535
0000020173200820141718012910253025
0000020183200820141719012530315800
0000020193200820141719013258088275
0000020203200820141721012580880021
0000020213200820141721012866299029
0000020223200820141722013044771020
0000020233200820141724013103638026
0000020243200820141724012746397023
0000020253200820141724013012901026
0000020263200820141725012796592024
0000020273200820141726012891642025
0000020283200820141726012870869020
0000020293200820141726014656862270
0000020303200820141726012627501587
0000020313200820141835012064595904
0000020323200820141915012784274022
0000020333200820142001016030920287
0000020343200820142257012553604868
0000020353200820142303012369437245
0000020363200820142306020391633559
0000020373200820142306012960724021
0000020383200820142310020206131571
0000020393200820142310012764220024
0000020403200820142310012777639029
0000020413200820142310012530076911
0000020423200820142310012720826024
0000020433200820142311012962493027
0000020443200820142314012626742025
0000020453200820142315012674623022
0000020463200820142315012710428026
0000020473200820142317016208594864
0000020483200820142321012884671023
0000020493200820142323012790558029
0000020503200820142323012824311020
0000020513200820142350012716132021
0000020523200820142350012622872021
0000020533200820142350010725881248
0000020543200820142350012880793027
0000020553200820142350016448549499
0000020563200820142350012305232766
0000020573200820142350012612739027
0000020583200820142350012657259024
0000020593200820142350013059122023
0000020603200820142350012365817833
0000020613200820142352012753234029
0000020623200820142352020172867406
0000020633200820142353012763629026
0000020643200820142353012493517913
0000020653200820142354012295570419
0000020663200820142355012149460167
0000020674210820140131210820140132
0000020683210820140711012834638022
0000020693210820140711012854525029
0000020703210820140715012187761535
0000020713210820140716016030920287
0000020723210820140717020172989951
0000020733210820140719014656862270
0000020743210820140719012580880021
0000020753210820140719012870869020
0000020763210820140719012699624022
0000020773210820140720012796592024
0000020783210820140721010898541341
0000020793210820140722012892085022
0000020803210820140722012530469484
0000020813210820140722012611072029
0000020823210820140722016160204786
0000020833210820140723012168012212
0000020843210820140723019007980591
0000020853210820140723012305255480
0000020863210820140724020986016890
0000020873210820140724012861225027
0000020883210820140724012530077063
0000020893210820140724012617919023
0000020903210820140725012746397023
0000020913210820140725013103638026
0000020923210820140730012917983029
0000020933210820140730012760291024
0000020943210820140730013012901026
0000020953210820140730012064595904
0000020963210820140732012866299029
0000020973210820140732012530315800
0000020983210820140732012658819023
0000020993210820140732020187503537
0000021003210820140732013026053022
0000021013210820140732013070430022
0000021023210820140733013270214277
0000021033210820140736012627501587
0000021043210820140737012891642025
0000021053210820140738012726427024
0000021063210820140743012760954023
0000021073210820140750012824311020
0000021083210820140750016208594864
0000021093210820140750020391633559
0000021103210820140750012626742025
0000021113210820140750012369437245
0000021123210820140750012777639029
0000021133210820140752012674623022
0000021143210820140752012960724021
0000021153210820140753012530076911
0000021163210820140756012884671023
0000021173210820140756012710428026
0000021183210820140757012764220024
0000021193210820140757012720826024
0000021203210820140757012553604868
0000021213210820140800012962493027
0000021223210820140813013258088275
0000021233210820140818012784274022
0000021243210820140903012910253025
0000021253210820141002013687649279
0000021265210820141237I012858592022RUTH ANE MARQUES FREIRES                            
0000021273210820141411012820016024
0000021283210820141514012880793027
0000021293210820141515010725881248
0000021303210820141515012365817833
0000021313210820141515012305232766
0000021323210820141517012622872021
0000021333210820141518012493517913
0000021343210820141518013059122023
0000021353210820141519012763629026
0000021363210820141527020172867406
0000021373210820141527012657259024
0000021383210820141527012612739027
0000021393210820141527012716132021
0000021403210820141528012295570419
0000021413210820141528016448549499
0000021423210820141528012149460167
0000021433210820141550012530469484
0000021443210820141550012305255480
0000021453210820141550012530077063
0000021463210820141552012892085022
0000021473210820141553010898541341
0000021483210820141556013634852274
0000021493210820141556012760291024
0000021503210820141557012894545020
0000021513210820141559012611072029
0000021523210820141559019007980591
0000021533210820141600012854525029
0000021543210820141600012658819023
0000021553210820141600012917983029
0000021563210820141601012861225027
0000021573210820141601013026053022
0000021583210820141718012168012212
0000021593210820141718012699624022
0000021603210820141718012760954023
0000021613210820141719012866299029
0000021623210820141719012187761535
0000021633210820141719014656862270
0000021643210820141721016030920287
0000021653210820141721013687649279
0000021663210820141721013258088275
0000021673210820141721012858592022
0000021683210820141721012530315800
0000021693210820141723013012901026
0000021703210820141723013103638026
0000021713210820141723012746397023
0000021723210820141723012607956023
0000021733210820141723020187503537
0000021743210820141723012870869020
0000021753210820141725012726427024
0000021763210820141725012834638022
0000021773210820141725012580880021
0000021783210820141726012891642025
0000021793210820141727012796592024
0000021803210820141740018194928104
0000021813210820141749012784274022
0000021823210820141816012820016024
0000021833210820141853012064595904
0000021844210820142124210820142125
0000021853210820142306012369437245
0000021863210820142309020391633559
0000021873210820142309012553604868
0000021883210820142309012710428026
0000021893210820142310020206131571
0000021903210820142310012720826024
0000021913210820142311012777639029
0000021923210820142311012960724021
0000021933210820142311012530076911
0000021943210820142311012962493027
0000021953210820142312012884671023
0000021963210820142315012824311020
0000021973210820142315012674623022
0000021983210820142316016208594864
0000021993210820142316012626742025
0000022003210820142326012790558029
0000022013210820142350010725881248
0000022023210820142350013059122023
0000022033210820142350012657259024
0000022043210820142350016448549499
0000022053210820142350012365817833
0000022063210820142350012716132021
0000022073210820142350012622872021
0000022083210820142351020172867406
0000022093210820142351012305232766
0000022103210820142351012493517913
0000022113210820142353012753234029
0000022123210820142355012763629026
0000022133210820142355012612739027
0000022143210820142355012149460167
0000022153210820142355012295570419
0000022163210820142356012880793027
0000022173220820140703013524728277
0000022183220820140705012866299029
0000022193220820140718012580880021
0000022203220820140718012530077063
0000022213220820140719012168012212
0000022223220820140719012187761535
0000022233220820140719012854525029
0000022243220820140719014656862270
0000022253220820140719012870869020
0000022263220820140719012611072029
0000022273220820140719012530469484
0000022283220820140719012892085022
0000022293220820140720012894545020
0000022303220820140720013634852274
0000022313220820140721020986016890
0000022323220820140721012861225027
0000022333220820140721016160204786
0000022343220820140722019007980591
0000022353220820140722012305255480
0000022363220820140722013069029026
0000022373220820140723012858592022
0000022383220820140724020187503537
0000022393220820140724018194928104
0000022403220820140724012796592024
0000022413220820140726010898541341
0000022423220820140726013070430022
0000022433220820140726012607956023
0000022443220820140727012760291024
0000022453220820140728013026053022
0000022463220820140729012530315800
0000022473220820140729012627501587
0000022483220820140729012699624022
0000022493220820140729012617919023
0000022503220820140729013258088275
